:1000000019C04AC049C048C047C046C045C044C0E6
:1000100043C042C041C040C03FC03EC03DC03CC0E4
:100020003BC03AC039C038C037C036C035C034C014
:1000300033C032C011241FBECFEFD2E0DEBFCDBF30
:0800400003D023C0F894FFCFA8
:100048008FEF87B98BB187608BB9C0E04A9B0AC034
:100058008FE493EC0197F1F700C00000CF5FC03444
:0A00680009F4C0E08C2F01D0F1CFA5
:1000720088B98EE18A95F1F718B881EE94E001977C
:08008200F1F700C00000089531
:0E008A00EC0107D005D0CE0105D0CE0104D088
:02009800B3CFE4
:02009A000895C7
:02009C000895C5
:02009E000895C3
:0200A000D1DFAE
:00000001FF
