:100000001CC000C142C041C040C03FC03EC03DC056
:100010003CC03BC03AC039C038C037C01BC135C036
:1000200034C033C032C031C030C02FC02EC02DC04C
:100030002CC02BC001000103800011241FBECFEF94
:10004000D2E0DEBFCDBFE4E3F0E040E017C0B59101
:10005000A59135912591059107FD0CC0959185914C
:10006000EF01F92FE82F05900D92A217B307D9F7EA
:10007000FE0104C01D92A217B307E1F7E933F407AC
:0A00800031F704D023C1F894FFCF3C
:02008A00BACFEB
:10008C008FE387B980EC8AB987E084B98BB187603C
:10009C008BB980916900836080936900E89A85B57B
:1000AC00846085BD8FE787BD84B5826084BD8091F7
:1000BC006E00826080936E008091B60080628093A7
:1000CC00B6007894A1E0B0E083E991E10197F1F7F3
:1000DC0000C0000018B88BB187708BB915B89EE1C1
:1000EC009A95F1F780910001882329F08091000105
:1000FC0081508093000123EA32E040E052E065E257
:10010C0070E0C0E0D0E01CC0E080CD0101C0880FE1
:10011C005A95EAF78E29808321962D5F3F4F4F4FDA
:10012C00C630D10559F1F901542FBFD06901E42E25
:10013C00F2E0CF0ED11CE11CF6015491E7FC50818A
:10014C008091010190E00C2E02C0959587950A9440
:10015C00E2F7FB0180FDD8CF9081FD0101C0EE0FCD
:10016C005A95EAF78E2F80958923FB01808321967F
:10017C002D5F3F4F4F4FC630D105A9F624E932E031
:10018C0040E050E065E270E0C0E0D0E08091020118
:10019C0090E00C2E02C0959587950A94E2F7FB012E
:1001AC0080FF1EC0E080CD0101C0880F5A95EAF790
:1001BC008E29808321962D5F3F4F4F4FC530D1053F
:1001CC0009F482CFF901542F70D06901E42EF2E0CA
:1001DC00CF0ED11CE11CF6015491E7FC5081D6CF17
:1001EC009081FD0101C0EE0F5A95EAF78E2F809594
:0801FC008923FB018083DECFA3
:100204001F921FB61F9211248F93809100018111B8
:100214000CC08AE080930001809101018F5F80937C
:100224000101809101018C3329F08F911F901FBE31
:100234001F90189510920101809102018F5F8093A5
:10024400020180910201883181F710920201EDCF01
:100254001F921FB61F9211248F93809101018F5F0B
:1002640080930101809101018C3368F010920101A7
:10027400809102018F5F8093020180910201883195
:1002840010F0109202018F911F901FBE1F901895BD
:0F0294002500002B00072B00062800052800047A
:1002A300250002250001280000280001280002285B
:0202B300000346
:1002B5000057FD03C065917591089561917191088D
:0102C50095A3
:0202C600089599
:0202C800089597
:0202CA00089595
:0E02CC00EC01FCDFFADFCE01FADFCE0100D03C
:0202DA00D5DE6F
:00000001FF
