:1000000019C022C021C020C01FC01EC01DC01CC0FE
:100010001BC01AC019C018C017C016C015C014C024
:1000200013C012C011C010C00FC00EC00DC00CC054
:100030000BC00AC011241FBECFEFD2E0DEBFCDBF80
:08004000B5D0EBC0F894FFCF2E
:02004800DBCF0C
:10004A00AF92BF92CF92DF92EF92FF920F931F93DC
:10005A00CF93DF93F62E90E021EF31E040E052E0BB
:10006A00C5E2D0E0A0E0B0E001E010E01DC0E88108
:10007A00B80101C0660F5A95EAF76E2B688311968C
:10008A002D5F3F4F4F4FA231B10541F1F901542F76
:10009A00B4D0EB016901E42E52E0C50ED11CE11C7B
:1000AA00F6015491E7FC5081BC010A2E02C07595F5
:1000BA0067950A94E2F760FDDACF6881F80101C01A
:1000CA00EE0F5A95EAF75E2F5095562358831196EC
:1000DA002D5F3F4F4F4FA231B105C1F60F2D10E0F2
:1000EA0082EE91E0A0E060E0C5E2D0E020E030E0FE
:1000FA00AA24A394B12C1DC07881A50101C0440F84
:10010A006A95EAF7472B48832F5F3F4F0396A11D55
:10011A002F30310549F1FC015A2F6FD0EB016C01E8
:10012A00EA2EF2E0CF0ED11CE11CF6016491E7FC45
:10013A006081A801022E02C0559547950A94E2F7FC
:10014A0040FDDACF5881F50102C0EE0FFF1F6A9514
:10015A00E2F74E2F4095452348832F5F3F4F039682
:10016A00A11D2F303105B9F62EE72A95F1F700C007
:10017A0018B88BB187708BB915B84FEA5DEA81E080
:10018A00415050408040E1F700C00000DF91CF911C
:10019A001F910F91FF90EF90DF90CF90BF90AF909B
:0201AA000895B6
:1001AC008FE387B980EC8AB987E084B98BB187601B
:1001BC008BB9C0E003C06C2F8C2F41DF4A9BFBCF67
:1001CC008FE493EC0197F1F700C00000CF5FC034CF
:0601DC0091F7C0E0F0CF36
:0F01E2002500002B00072B00062800042800052D
:1001F100250002250001280000280001280002280E
:020201000003F8
:100203000057FD03C065917591089561917191083F
:010213009555
:0202140008954B
:02021600089549
:02021800089547
:0E021A00EC01FCDFFADFCE01FADFCE0100D0EE
:020228000DDFE8
:00000001FF
