:100000001CC0E5C042C041C040C03FC03EC03DC072
:100010003CC03BC03AC039C038C037C036C035C01C
:1000200034C033C032C031C030C02FC02EC02DC04C
:100030002CC02BC001000102800011241FBECFEF95
:10004000D2E0DEBFCDBFE4E3F0E040E017C0B59101
:10005000A59135912591059107FD0CC0959185914C
:10006000EF01F92FE82F05900D92A217B307D9F7EA
:10007000FE0104C01D92A217B307E1F7E933F407AC
:0A00800031F704D0E9C0F894FFCF77
:02008A00BACFEB
:10008C008FE387B980EC8AB987E084B98BB187603C
:10009C008BB980916900836080936900E89A7894A9
:1000AC00A1E0B0E083E991E10197F1F700C0000015
:1000BC0018B88BB187708BB915B89EE19A95F1F78A
:1000CC002FE232E040E052E065E270E0C0E0D0E0C8
:1000DC001CC0E080CD0101C0880F5A95EAF78E292B
:1000EC00808321962D5F3F4F4F4FC630D10559F17C
:1000FC00F901542FA0D06901E42EF2E0CF0ED11CEF
:10010C00E11CF6015491E7FC50818091000190E0D4
:10011C000C2E02C0959587950A94E2F7FB0180FDA1
:10012C00D8CF9081FD0101C0EE0F5A95EAF78E2FC2
:10013C0080958923FB01808321962D5F3F4F4F4F84
:10014C00C630D105A9F620E232E040E050E065E28D
:10015C0070E0C0E0D0E08091010190E00C2E02C074
:10016C00959587950A94E2F7FB0180FF1EC0E0800D
:10017C00CD0101C0880F5A95EAF78E29808321960C
:10018C002D5F3F4F4F4FC530D10509F48BCFF9018F
:10019C00542F51D06901E42EF2E0CF0ED11CE11C9A
:1001AC00F6015491E7FC5081D6CF9081FD0101C03E
:1001BC00EE0F5A95EAF78E2F80958923FB018083E9
:0201CC00DECF84
:1001CE001F921FB61F9211248F9386E08A95F1F726
:1001DE0000C0809100018F5F80930001809100012B
:1001EE00853029F08F911F901FBE1F901895109289
:1001FE000001809101018F5F8093010180910101C7
:10020E008A3081F7109201018F911F901FBE1F90AF
:02021E00189531
:0F0220002500002B00072B0006280005280004EE
:10022F0025000225000128000028000128000228CF
:02023F000003BA
:100241000057FD03C0659175910895619171910801
:010251009517
:0202520008950D
:0202540008950B
:02025600089509
:0E025800EC01FCDFFADFCE01FADFCE0100D0B0
:020266000FDFA8
:00000001FF
