:100000001CC000C142C041C040C03FC03EC03DC056
:100010003CC03BC03AC039C038C037C00CC135C045
:1000200034C033C032C031C030C02FC02EC02DC04C
:100030002CC02BC001000103800011241FBECFEF94
:10004000D2E0DEBFCDBFE4E3F0E040E017C0B59101
:10005000A59135912591059107FD0CC0959185914C
:10006000EF01F92FE82F05900D92A217B307D9F7EA
:10007000FE0104C01D92A217B307E1F7E933F407AC
:0A00800031F704D014C1F894FFCF4B
:02008A00BACFEB
:10008C008FE387B980EC8AB987E084B98BB187603C
:10009C008BB980916900836080936900E89A8091A4
:1000AC00B60080628093B60085B5846085BD8FE70D
:1000BC0087BD84B5826084BD80916E008260809320
:1000CC006E007894A1E0B0E000C000C0000018B849
:1000DC008BB187708BB915B88BE795E10197F1F768
:1000EC0000C0000080910001882329F0809100015C
:1000FC0081508093000125E832E040E052E065E257
:10010C0070E0C0E0D0E01CC0E080CD0101C0880FE1
:10011C005A95EAF78E29808321962D5F3F4F4F4FDA
:10012C00C630D10559F1F901542FB0D06901E42E34
:10013C00F2E0CF0ED11CE11CF6015491E7FC50818A
:10014C008091010190E00C2E02C0959587950A9440
:10015C00E2F7FB0180FDD8CF9081FD0101C0EE0FCD
:10016C005A95EAF78E2F80958923FB01808321967F
:10017C002D5F3F4F4F4FC630D105A9F626E732E031
:10018C0040E050E065E270E0C0E0D0E08091020118
:10019C0090E00C2E02C0959587950A94E2F7FB012E
:1001AC0080FF1EC0E080CD0101C0880F5A95EAF790
:1001BC008E29808321962D5F3F4F4F4FC530D1053F
:1001CC0009F482CFF901542F61D06901E42EF2E0D9
:1001DC00CF0ED11CE11CF6015491E7FC5081D6CF17
:1001EC009081FD0101C0EE0F5A95EAF78E2F809594
:0801FC008923FB018083DECFA3
:100204001F921FB61F9211248F9310920101109216
:10021400020180910001811107C08AE080930001EE
:1002240010920101109202018F911F901FBE1F9026
:0202340018951B
:100236001F921FB61F9211248F93809101018F5F29
:1002460080930101809101018C3368F010920101C5
:10025600809102018F5F80930201809102018831B3
:1002660010F0109202018F911F901FBE1F901895DB
:0F0276002500002B00072B000628000528000498
:100285002500022500012800002800012800022879
:02029500000364
:100297000057FD03C06591759108956191719108AB
:0102A70095C1
:0202A8000895B7
:0202AA000895B5
:0202AC000895B3
:0E02AE00EC01FCDFFADFCE01FADFCE0100D05A
:0202BC00E4DE7E
:00000001FF
